:020000040800F2
:10000000B04600246D0300081F3100083B2F000894
:100010001D310008E504000831430008000000001D
:10002000000000000000000000000000AD02000819
:10003000E70400080000000009030008A9330008D5
:100040008703000887030008870300088703000868
:100050008703000887030008870300088703000858
:100060008703000887030008870300088703000848
:100070008703000887030008870300088703000838
:100080008703000887030008870300088703000828
:100090008703000887030008870300088703000818
:1000A0005935000887030008870300088703000804
:1000B00065350008870300088703000887030008E8
:1000C00087030008870300088703000887030008E8
:1000D0008703000887030008E94200088703000837
:1000E000870300088703000800000000870300085A
:1000F00087030008870300088703000887030008B8
:1001000087030008870300088703000887030008A7
:100110008703000887030008870300088703000897
:100120008703000887030008870300088703000887
:100130008703000887030008870300088703000877
:1001400000000000000000000000000000000000AF
:100150008703000887030008870300088703000857
:100160008703000887030008870300088703000847
:1001700087030008870300088703000800000000C9
:100180008703000887030008870300088703000827
:100190008703000887030008870300088703000817
:1001A0008703000887030008870300088703000807
:1001B00087030008870300088703000887030008F7
:1001C00087030008870300088703000887030008E7
:1001D00087030008870300088703000887030008D7
:1001E00087030008870300088703000887030008C7
:1001F00087030008870300088703000887030008B7
:1002000087030008870300088703000887030008A6
:100210008703000887030008870300088703000896
:100220008703000887030008870300080000000018
:100230008703000887030008000000008703000808
:100240008703000887030008870300088703000866
:100250008703000887030008870300088703000856
:100260008703000887030008870300088703000846
:1002700087030008870300088703000800000000C8
:1002800087030008870300088703000800000000B8
:100290000000000087030008DFF80CD000F010F920
:1002A0000048004765450008B04600242C4B1968FB
:1002B0000868B0E8F04F80F30988BFF36F8F4FF004
:1002C000000080F3118870470000000008480068B3
:1002D000006880F308884FF0000080F3148862B64D
:1002E00061B6BFF34F8FBFF36F8F00DF00BF00BF5A
:1002F00008ED00E0DFF80C00016841F470010160D6
:10030000704700BF88ED00E0EFF30980BFF36F8F07
:10031000134B1A681EF0100F08BF20ED108A20E959
:10032000F04F106009B44FF0500080F31188BFF314
:100330004F8FBFF36F8F04F0B5FD4FF0000080F3D7
:10034000118809BC19680868B0E8F04F1EF0100F5A
:1003500008BFB0EC108A80F30988BFF36F8F704735
:1003600028000024EFF3058070470000064880470E
:1003700006480047FEE7FEE7FEE7FEE7FEE7FEE78A
:10038000FEE7FEE7FEE7FEE77D340008990200087D
:100390002DE9F05F0546002092469B4688460646BA
:1003A000814640241BE0284641464746224600F04D
:1003B00077F853465A46C01A914110D31146184651
:1003C000224600F05EF82D1A67EB01084F462246E0
:1003D0000120002100F055F817EB00094E41201EC6
:1003E000A4F10104DFDC484631462A464346BDE815
:1003F000F09F10B5431A934209D28318881803E07E
:1004000010F8011D03F8011D521EF9D210BD40EA7B
:1004100001039B0703D009E008C9121F08C0042A82
:10042000FAD203E011F8013B00F8013B521EF9D269
:1004300010BDD2B201E000F8012B491EFBD270477B
:100440000022F6E710B513460A4604461946FFF7A0
:10045000F0FF204610BD30B50B460146002020229B
:10046000012409E021FA02F59D4205D303FA02F5C1
:10047000491B04FA02F52844151EA2F10102F1DC21
:1004800030BD202A04DB203A00FA02F10020704738
:100490009140C2F1200320FA03F3194390407047C2
:1004A000202A04DB203A21FA02F00021704721FAC9
:1004B00002F3D040C2F12002914008431946704730
:1004C000064C074D06E0E06840F0010394E80700A1
:1004D00098471034AC42F6D3FFF7E2FE28570008E5
:1004E00048570008FEE7704772B6FEE72DE9F84F5F
:1004F000044600F0E3FB009034B194F83500022884
:1005000005D080206065EBE00120BDE8F88FCC4E7F
:10051000CB4FCB491836DFF828833037DFF82093EC
:10052000DFF81CA308F14808DFF814B309F16009EB
:1005300020680AF1780A0BF1900B88422ED0B04265
:100540002CD0B8422AD0404528D0484526D0504526
:1005500024D0584522D0BA4AA83290421ED0B94A77
:1005600090421BD0B74A1832904217D0B54A303269
:10057000904213D0B34A483290420FD0B14A603211
:1005800090420BD0AF4A7832904207D0AD4A9032B9
:10059000904203D0AB4AA832904209D1026822F0BF
:1005A0001E0202602068426922F08002426103E07C
:1005B000026822F00E02026025688D4228464DD066
:1005C000B0424BD0B84249D0404547D0484545D0CD
:1005D000504543D0584541D0994AA83290423DD029
:1005E000984A90423AD0974A1832904236D0954A6B
:1005F0003032904232D0934A483290422ED0914AC3
:10060000603290422AD08F4A7832904226D08D4A6A
:100610009032904222D08B4AA83290421ED08A4A11
:1006200090421BD0884A1432904217D0864A283212
:10063000904213D0844A3C3290420FD0824A5032CA
:1006400090420BD0804A6432904207D07E4A783282
:10065000904203D07C4A8C32954204D1206E0268CD
:1006600022F48072026076492068884228D0B04225
:1006700026D0B84224D0404522D0484520D050450D
:100680001ED058451CD06E49A831884218D06D49FB
:10069000884215D06B491831884211D069493031F0
:1006A00088420DD067494831884209D06549603198
:1006B000884205D063497831884201D06149903140
:1006C000016821F0010101600EE000F0F7FA0099E5
:1006D000401A052808D920206065032084F83500D9
:1006E000002084F834000FE72868C007EDD1544A91
:1006F0000121206890422ED0B0422CD0B8422AD09E
:10070000404528D0484526D0504524D0584522D0D1
:100710004B4BA83398421ED04A4B98421BD0494BB2
:100720001833984217D0474B3033984213D0454B7B
:10073000483398420FD0434B603398420BD0414B23
:100740007833984207D03F4B9033984203D03D4BCB
:10075000A833984208D194F85C30A06D03F01F05CF
:100760003F23AB40836007E094F85C30A06D03F05A
:100770001F0301FA03F34360206890424DD0B0425A
:100780004BD0B84249D0404547D0484545D0504568
:1007900043D0584541D02A4AA83290423DD0294AF8
:1007A00090423AD0274A1832904236D0254A303209
:1007B000904232D0234A483290422ED0214A6032B1
:1007C00090422AD01F4A7832904226D01D4A903259
:1007D000904222D01B4AA83290421ED01A4A904220
:1007E0001BD0194A1432904217D0174A283290422F
:1007F00013D0154A3C3290420FD0134A50329042E7
:100800000BD0114A6432904207D00F4A783290429E
:1008100003D00D4A8C3290420BD1D4E919024260C8
:10082000E06E30B1026822F480720260D4E91C02EA
:10083000426084F83510002084F8340065E600003A
:100840001000024010040240085402582DE9F05FE5
:1008500028B190F83510022904D08021416501208B
:10086000BDE8F09F914A914B914D1832904E303334
:10087000DFF838C21835DFF834E24836DFF8309256
:10088000DFF82CA20EF1600EDFF824B209F1300976
:1008900001680AF1600A864C0BF1A80B614529D06A
:1008A000914227D0994225D0804F4837B94221D074
:1008B00071451FD07D4F7837B9421BD07B4F9037A1
:1008C000B94217D0794FA837B94213D0A14211D0FD
:1008D000A9420FD049450DD0B1420BD0514509D0A6
:1008E000734F7837B94205D0714F9037B94201D074
:1008F00059452FD1042780F83570614525D09142A4
:1009000023D0994221D06948483081421DD0714599
:100910001BD066487830814217D0644890308142BD
:1009200013D06248A83081420FD0A1420DD0A94215
:100930000BD0494509D0B14207D0514505D05C489C
:100940007830814201D05A489030086820F0010088
:100950000860A8E0D1F8008028F00E08C1F80080F7
:100960000168E04641452BD0914229D0994227D0D9
:10097000DFF838C10CF1480C614521D071451FD01A
:10098000DFF828C10CF1780C614519D0DFF81CC1E3
:100990000CF1900C614513D0DFF810C10CF1A80CDC
:1009A00061450DD0A1420BD0A94209D0494507D0DD
:1009B000B14205D0514503D0DFF8F4C00CF1780CFA
:1009C000D1F800C02CF0010CC1F800C001684FF054
:1009D000010C414546D0914244D0994242D0334A1D
:1009E000483291423ED071453CD0304A78329142F3
:1009F00038D02E4A9032914234D02C4AA8329142BB
:100A000030D0A1422ED0A9422CD049452AD0B142A3
:100A100028D0514526D0264A7832914222D0B94278
:100A200020D059451ED0234A91421BD0214A14326E
:100A3000914217D01F4A2832914213D01D4A3C32AE
:100A400091420FD01B4A503291420BD0194A643266
:100A5000914207D0174A7832914203D0154A8C321E
:100A6000914218D1016E0A6822F480720A6090F8EF
:100A70005C20816D02F01F020CFA02F24A60D0E99C
:100A800019124A60C16E31B10A6822F480720A609C
:100A9000D0E91C124A6080F835C0002180F834107B
:100AA000016D01B188470020DAE600001000024025
:100AB00010040240085402582DE9F84F694C0022F6
:100AC0004FF0B04A4FF0010B4FF003084FF00F0901
:100AD000C0E00BFA02F6334073D00D7905F0030540
:100AE000012D01D0022D15D18768550008FA05FCAB
:100AF00027EA0C07D1F80CC00CFA05FC4CEA070CED
:100B0000C0F808C04568B5430E79C6F30016964094
:100B10002E4346600D79ED43AD0708D0C6685500F9
:100B200008FA05F7BE438F68AF403743C7600D79B9
:100B300005F00305022D11D1D50800EB85073E6AAB
:100B40005507ED0E09FA05FC26EA0C06D1F810C08F
:100B50000CFA05FC4CEA060CC7F820C006685500E4
:100B600008FA05F7BE430F7907F00307AF40374394
:100B700007604D6815F4403F6BD03B4D2E6846F042
:100B800002062E602D6822F0030606F1B04605F03D
:100B900002050095D6F8087495074FEA157C09FA06
:100BA0000CF5AF43314DA84201D100252EE0304D68
:100BB000A84201D1012529E02E4DA84202D10225EB
:100BC00024E046E02C4DA84201D103251EE02B4D28
:100BD000A84201D1042519E0294DA84201D10525DB
:100BE00014E0284DA84201D106250FE0264DA84269
:100BF00001D107250AE0254DA84201D1082505E0CD
:100C0000234DA84201D1092500E00A2505FA0CF57B
:100C10003D43C6F80854DAF8005056464F689D43E5
:100C2000FF0200D51D43356075684F689D43BF02C4
:100C300000D51D43756065684E689D43B60300D5B9
:100C40001D43656025684E689D43F60300D51D432E
:100C50002560521C0B6833FA02F57FF43AAFBDE809
:100C6000F88F000080000058F44402580000025839
:100C70000004025800080258000C025800100258E4
:100C80000014025800180258001C02580020025894
:100C900000240258426921EA02030A4043EA024161
:100CA000816170470AB1816170470904FBE7000068
:100CB00001480068000C70470010005C0148806823
:100CC0007047000014000024024881680278114433
:100CD0008160704714000024032010B500F0B0F8C4
:100CE00001F04EF80F4A11681268C1F303230E4950
:100CF000CB5C03F01F03D84002F00F02895C0B4A63
:100D000001F01F0120FA01F11160094908600F206C
:100D100000F010F808B1012010BD00F051F80020DB
:100D200010BD000018440258005700082400002499
:100D30002000002410B5102804468AB02DD20022CD
:100D400001461C2000F05CF81C2000F04BF818480D
:100D500004601848016841F001010160006809A9B8
:100D600000F001000890684600F094FF0598B8B1C3
:100D700000F0E2FF400010494FF08042B0FBF1F17B
:100D80000E48026040F2E732491E41600021C0E98E
:100D90000321816001F070FB28B101200AB010BD71
:100DA00000F0CAFFE7E7054801F0B6FBF6E70000F0
:100DB00018000024E844025840420F007005002447
:100DC000074882B0016841F002010160006800221A
:100DD0000F2100F002000090901E02B000F010B849
:100DE000F4440258002809DB012100F01F02914061
:100DF0004009800000F1E020C0F8001170470000B9
:100E00000E4BF0B41B68C3F30223C3F10704042C98
:100E100000D904241D1D072D01D2002300E0DB1E94
:100E2000012606FA04F56D1E0D409D409E40761E7B
:100E3000164045EA0601F0BC03F08CBA0CED00E068
:100E4000064A00F0070110684FF6FF03184040EA19
:100E50000120034908431060704700000CED00E0DA
:100E60000000FA05124970B50A68D243520705D549
:100E7000096801F00701814212D117E00A6822F0E7
:100E8000070202430A60FFF719FF094D4FF47A7613
:100E90000446083D06E0FFF711FF001BB04201D9F0
:100EA000012070BD2868C0438004F4D4002070BDC8
:100EB0000C48025810B500F01DFF05490968054AA5
:100EC000C1F30211515C01F01F01C84010BD0000C8
:100ED0002044025800570008484910B50A680968BC
:100EE00002F00302454B1B1DC1F305311B68434C47
:100EF0001434C3F300132468C4F3CC0414FB03F3C9
:100F000000EE103AB8EE400AE9B33C4B9FED3C1AB4
:100F10001033F7EE000A62B1DFED3A1A012A01D070
:100F2000022A5ED002EE101AF8EE422A81EEA22AC0
:100F30001AE0324A283A1468A4060DD51268C2F3A2
:100F4000C104314AE24001EE902AF8EE612A01EE36
:100F5000901AF8EE611A05E001EE901ADFED2B2AE7
:100F6000F8EE611A82EEA12A1968C1F3080101EEB8
:100F7000901A1968F8EE611A40EE011A31EEA00AD3
:100F800022EE000A00E033E0C1F3462101EE101A20
:100F9000B8EE411A31EE201AC0EE011ABCEEE11A89
:100FA00080ED001A1968C1F3064101EE101AB8EE7F
:100FB000411A31EE201AC0EE011ABCEEE11A80EDA2
:100FC000011A1968C1F3066101EE101AB8EE411A50
:100FD00071EE200A80EE201ABCEEC10A80ED020AF2
:100FE00010BD01EE901ADFED0A2AF8EE611AB9E79A
:100FF000002101604160816010BD0000284402585A
:10100000000000390024744A0090D0030024744C7E
:1010100020BCBE4B484910B50A68096802F00302BB
:10102000454B1B1DC1F305511B68434C1C34C3F3D6
:1010300000232468C4F3CC0414FB03F300EE103A3D
:10104000B8EE400AE9B33C4B9FED3C1A1833F7EE7B
:10105000000A62B1DFED3A1A012A01D0022A5ED0FD
:1010600002EE101AF8EE422A81EEA22A1AE0324A63
:10107000283A1468A4060DD51268C2F3C104314A97
:10108000E24001EE902AF8EE612A01EE901AF8EEA5
:10109000611A05E001EE901ADFED2B2AF8EE611AD5
:1010A00082EEA12A1968C1F3080101EE901A1968AD
:1010B000F8EE611A40EE011A31EEA00A22EE000AA3
:1010C00000E033E0C1F3462101EE101AB8EE411AF8
:1010D00031EE201AC0EE011ABCEEE11A80ED001AC2
:1010E0001968C1F3064101EE101AB8EE411A31EE4B
:1010F000201AC0EE011ABCEEE11A80ED011A19683F
:10110000C1F3066101EE101AB8EE411A71EE200A21
:1011100080EE201ABCEEC10A80ED020A10BD01EE7D
:10112000901ADFED0A2AF8EE611AB9E70021016092
:101130004160816010BD0000284402580000003961
:101140000024744A0090D0030024744C20BCBE4B91
:101150002DE9F84F0446006800252E46010104F1F0
:101160002400FE4FDFF8F88300901DD5606E50B16B
:10117000B0F5801F0CD0B0F5001F0ED0B0F5401FA9
:101180001DD001250FE0386840F40030386016E0CB
:101190000221201D01F0C4FF03E00098022102F0AB
:1011A00049F805000BD02E462088C00523D5606D78
:1011B00005281ED2DFE800F00C11161B1B00D8F822
:1011C0000010626E21F440111143C8F80010EBE7E3
:1011D000386840F40030386009E00021201D01F03B
:1011E0009FFF03E00098002102F024F805466DB14E
:1011F00000E001252E462088800528D5A06D802896
:101200001ED00CDC90B140280ED114E0D8F80010AC
:10121000626D21F007011143C8F80010EBE7C02808
:1012200013D0B0F5807F10D001250FE0386840F46E
:101230000030386009E00021201D01F071FF03E05B
:101240000098002101F0F6FF054685B12E46208862
:10125000DFF8109340052CD5D4F8A400B0F5800F2A
:1012600020D00DDCA0B1B0F5001F0FD115E0D8F8EB
:101270000010A26D21F4E0711143C8F80010E6E7F8
:10128000B0F5C00F13D0B0F5000F10D001250FE05E
:10129000386840F40030386009E00021201D01F07A
:1012A0003FFF03E00098002101F0C4FF054675B13F
:1012B0002E46208800052DD5D4F8A800B0F1007F77
:1012C00021D00EDCA8B1B0F1807F10D116E0D9F8A2
:1012D0000010D4F8A42021F460011143C9F80010D3
:1012E000E7E7B0F1407F13D0B0F1806F10D0012557
:1012F0000FE0386840F40030386009E00021201D1C
:1013000001F00EFF03E00098002101F093FF054675
:101310006DB12E46206880011FD5A06CD8B1102871
:101320000FD0202812D0302815D0012514E0D9F88C
:101330000010D4F8A82021F0E0611143C9F8001092
:10134000E8E7386840F40030386004E00221201DEE
:1013500001F0E6FE05466DB12E462088C0042BD56F
:10136000E06DB0F5005F20D00DDCA0B1B0F5805F7E
:101370000FD115E07A48001F0168A26C21F03001FE
:1013800011430160E9E7B0F5405F13D0B0F5804F3D
:1013900010D001250FE0386840F40030386009E0D3
:1013A0000021201D01F0BCFE03E00098002101F0A7
:1013B00041FF054685B12E462088800429D5206E40
:1013C000B0F5403F23D010DC08B3B0F5803F14D017
:1013D000B0F5003F0FD115E0D8F80010E26D21F410
:1013E000E0411143C8F80010E6E7B0F5802F0ED0B9
:1013F000B0F5A02F0BD001250AE00121201D01F03E
:101400008FFE03E00098012101F014FF05468DB125
:101410002E46208840042AD5D4F8AC00B0F1405FB5
:1014200023D010DC08B3B0F1805F14D0B0F1005FBE
:101430000FD115E0D8F80010226E21F4E0211143FD
:10144000C8F80010E5E7B0F1804F0ED0B0F1A04F22
:101450000BD001250AE00121201D01F061FE03E00F
:101460000098012101F0E6FE05466DB12E46208868
:1014700000041FD5E06ED8B1B0F1805F0ED0B0F19E
:10148000005F10D0012514E0D9F80010D4F8AC208A
:1014900021F0E0411143C9F80010E8E7386840F452
:1014A0000030386004E00121201D01F039FE0546BE
:1014B0006DB12E462068C0011ED5606CD0B10128E8
:1014C0000ED0022811D0032814D0012513E0D8F83B
:1014D0000010E26E21F040511143C8F80010E9E716
:1014E000386840F40030386004E00221201D01F02B
:1014F00017FE054675B12E462068DFF86CB0400235
:101500005AD51A48016841F480710160FFF7D6FB93
:1015100082460EE01248001F0168626C21F0030150
:1015200011430160E8E7FFF7C9FBA0EB0A0064285C
:101530003AD80E480068C005F5D5B5BB0948183043
:101540000068B4F8B01000F4407001F440718842B3
:1015500019D00448183001680AE000002C440258F1
:101560005044025858440258104402580048025847
:10157000026821F4407142F480320260026822F471
:10158000803202600160D4F8B000B0F5807F22D1D3
:10159000FFF794FB824609E0FFF790FBA0EB0A01FE
:1015A00041F28830814201D9032504E0FE480068F9
:1015B0008007F1D57DB12E462078DFF8F0A3C00773
:1015C0003CD0A06F182837D025DC78B3082828D065
:1015D000102824D12BE0D4F8B000C0F30121032956
:1015E0000ED0DBF8001021F47C51CBF80010EE484F
:1015F0000168B4F8B020C2F30B0211430160DBE7CD
:10160000DBF80020EA4B22F47C5203EA101002437C
:10161000CBF80020EBE720280ED028280CD001259D
:101620000BE00121201D01F07BFD04E004E00098A7
:10163000012101F0FFFD05465DB12E4620788007AF
:101640001ED5606F062819D2DFE800F0160C1116BF
:101650001616DAF80010A26F21F038011143CAF80B
:101660000010EBE70121201D01F05AFD03E0009876
:10167000012101F0DFFD054675B100E001252E4690
:10168000207840071FD5D4F89000062819D2DFE84B
:1016900000F0160C11161616DAF80010626F21F021
:1016A00007011143CAF80010EAE70121201D01F0EB
:1016B00037FD03E00098012101F0BCFD05469DB116
:1016C00000E001252E46207880062BD5D4F88C002A
:1016D000B0F1405F24D011DC10B3B0F1805F15D0C1
:1016E000B0F1005F10D116E0D9F80010D4F89020C6
:1016F00021F007011143C9F80010E4E7B0F1804F71
:101700000ED0B0F1A04F0BD001250AE00021201D22
:1017100001F006FD03E00098022101F08BFD054673
:101720008DB12E46207840062BD5D4F89800B0F520
:10173000406F24D011DC10B3B0F5806F15D0B0F538
:10174000006F10D116E0DAF80010D4F88C2021F0E8
:10175000E0411143CAF80010E4E7B0F5805F0ED015
:10176000B0F5A05F0BD001250AE00021201D01F09B
:10177000D7FC03E00098022101F05CFD05468DB125
:101780002E46207800062BD5D4F89C00B0F5C04F2B
:1017900024D011DC10B3B0F5005F15D0B0F5804F48
:1017A00010D116E0D9F80010D4F8982021F4E051B7
:1017B0001143C9F80010E4E7B0F5004F0ED0B0F5C2
:1017C000204F0BD001250AE00021201D01F0A8FCCC
:1017D00003E00098022101F02DFD05464DB12E4693
:1017E000207800071ED5D4F88000B0F5805F0AD0BD
:1017F0000FE0D9F80010D4F89C2021F46041114387
:10180000C9F80010ECE70098022101F013FD00B1C7
:101810000126DAF80010D4F8802021F44051114359
:10182000CAF800102078C00613D5D4F89400B0F59B
:10183000807F05D10098022101F0FCFC00B1012657
:10184000D9F80010D4F8942021F440711143C9F85C
:1018500000102068000316D5D4F8A00038B1B0F508
:10186000803F09D0B0F5003F0BD001250AE00021F0
:10187000201D01F055FC03E00098022101F0DAFC84
:10188000054685B12E462068400322D5D4F8840051
:10189000B0F5801F11D0B0F5001F13D0B0F5401F78
:1018A00015D0012514E0D9F80010D4F8A02021F4B7
:1018B00040311143C9F80010E5E7386840F40030C2
:1018C000386004E00098012101F0B4FC054655B1F0
:1018D0002E462068C0031CD5E06C70B1B0F5803F87
:1018E00010D0012514E0DAF80010D4F8842021F497
:1018F00040111143CAF80010EBE7386840F400309B
:10190000386004E00221201D01F00AFC0546CDB13B
:101910002E462068800005D50098022101F08AFC3F
:1019200000B10126206880031BD5E06FB8B1B0F587
:10193000807F10D0B0F5007F11D0B0F5407F0ED081
:1019400001250DE0194808380168E26C21F4803166
:1019500011430160DDE7386840F4003038604DB372
:101960002E462068C00207D5D8F80010226F21F05B
:1019700000411143C8F800102068C00008D5DBF80A
:101980000000D4F8B42020F480401043CBF80000CD
:101990002068800207D5D8F80010A26E21F080716F
:1019A0001143C8F8001006E070440258544402582D
:1019B000CFFFFF0029E0206840000CD5DBF80010C5
:1019C00021F40041CBF80010DBF80010D4F8B82067
:1019D0001143CBF800102068002806DA104801688F
:1019E000226D21F04051114301602068000208D5AA
:1019F000DAF80010D4F8882021F440011143CAF825
:101A000000105EB10120BDE8F88FDAF80010E26F37
:101A100021F440711143CAF80010A2E70020F2E758
:101A20004C4402582DE9F05F04000D467ED0DFF8EB
:101A30004492D9F8000000F00F00A8420CD2D9F867
:101A4000001021F00F012943C9F80010D9F8000057
:101A500000F00F00A84269D12078874E40070AD5D0
:101A60002069316801F07001884204D9316821F0A1
:101A70007001014331602078DFF8008200070CD547
:101A800060694146D8F8002002F07002904204D903
:101A90000A6822F0700202430A602078C0060CD562
:101AA000A0694146D8F8002002F4E062904204D9CF
:101AB0000A6822F4E06202430A602078DFF8C0B1CD
:101AC00080060CD5E0695946DBF8002002F0700270
:101AD000904204D90A6822F0700202430A6020781A
:101AE00080070AD5E068316801F00F01884204D907
:101AF000316821F00F01014331602078C0073DD0EB
:101B00003068A16820F47060084330605A4960680A
:101B10001839022818D0032819D00968012819D0CB
:101B20004907002949DADFF850A100E045E0AAF1B1
:101B3000080ADAF8001021F007010143CAF8001082
:101B4000FFF7BCF8074611E009688903E9E709686F
:101B50008901E6E7C905E4E7FFF7B0F8C11B41F2E8
:101B60008830814202D90320BDE8F09FDAF80000F6
:101B7000616800F03800B0EBC10FEDD1207880072C
:101B80000AD5E068316801F00F01884204D231685B
:101B900021F00F0101433160D9F80010484601F0EF
:101BA0000F01A9420BD9016821F00F0129430160FF
:101BB000006800F00F00A84201D00120D4E720788F
:101BC00040070AD52069316801F07001884204D2CB
:101BD000316821F0700101433160207800070CD595
:101BE00060694146D8F8002002F07002904204D2A9
:101BF0000A6822F0700202430A602078C0060CD501
:101C0000A0694246D8F8001001F4E061884204D28D
:101C1000116821F4E06101431160207880060CD541
:101C2000E0695946DBF8002002F07002904204D2CD
:101C30000A6822F0700202430A6000F0A1F83168DD
:101C4000C1F303220F498A5C02F01F02D0403268C0
:101C500002F00F02895C0C4A01F01F0120FA01F129
:101C600011600A4908600A480068BDE8F05FFFF7A4
:101C700061B8000000200052184402581C44025869
:101C800020440258005700082400002420000024AB
:101C9000180000243F220260144A126802F0070272
:101CA0004260124A0832136803F470638360136859
:101CB00003F00F03C360126802F0700202610B4A66
:101CC0000C32136803F070034361126802F4E0629F
:101CD0008261064A1032126802F07002C261044842
:101CE000006800F00F0008607047000010440258C0
:101CF0000020005200B500F043F80B4A116812684A
:101D0000C1F303230949CB5C03F01F03D84002F061
:101D10000F02895C064A01F01F0120FA01F11160EF
:101D2000044A1060084600BD1844025800570008D5
:101D3000240000242000002400B5FFF7DBFF054944
:101D40000968054AC1F30211515C01F01F01C84046
:101D500000BD00001C4402580057000800B5FFF702
:101D6000C9FF05490968054AC1F30221515C01F028
:101D70001F01C84000BD00001C4402580057000865
:101D8000434830B50068444C10F03801414808D051
:101D90000211082903D010290BD018290BD01046A6
:101DA00030BD21688906FBD52168C1F3C101C84057
:101DB00030BD3A4830BD364918310A68096802F02A
:101DC0000302334B1C33C1F305111B68304D03F084
:101DD000010324352D68C5F3CC0515FB03F300EE94
:101DE000103AB8EE400AE9B3294BDFED2D0A203353
:101DF000B7EE001A62B1DFED2B1A012A01D0022AD8
:101E00003CD002EE101AF8EE422A81EEA22A17E028
:101E1000226892060CD52268C2F3C102D04001EEBE
:101E2000900AF8EE612A01EE901AF8EE611A05E0C8
:101E300001EE901ADFED1C2AF8EE611A82EEA12A5B
:101E40001868C0F3080001EE900A1868F8EE611AED
:101E500040EE201A31EE810A22EE000AC0F346203D
:101E6000401C00E011E000EE900AF8EE600A80EEFF
:101E7000201ABCEEC10A10EE100A30BD01EE901A15
:101E8000DFED0A2AF8EE611AD8E7002030BD000025
:101E9000104402580090D0030044025840787D015D
:101EA000000000390024744A0024744C20BCBE4B4E
:101EB0002DE9F05F040079D02078DFF8F8A3FE4E1A
:101EC000FE4DC00747D0DAF80000316800F0380056
:101ED000102815D0182803D101F0030002280FD0D4
:101EE0006068B0F5803F12D010B1B0F5A02F18D0C7
:101EF000286820F480302860286820F4802009E0D9
:101F00002868800327D560680028D4D023E028689B
:101F100040F480302860606888B1FEF7CFFE074645
:101F200009E0286840F480202860F0E7FEF7C6FE4C
:101F3000C01B642872D828688003F7D50BE0FEF731
:101F4000BDFE074604E0FEF7B9FEC01B6428F1D8C9
:101F500028688003F7D4207841F20309D84F80071E
:101F600066D5DAF80000316810F038000ED0182875
:101F700001D188070AD0E06880B3296821F01901EF
:101F800001432960FEF79AFE80462EE0286840074C
:101F900002D5E06800288ED02868E16820F019009A
:101FA00008432860FEF78AFE804606E0D8E0FEF788
:101FB00085FEA0EB08000228BCD828684007F6D5AB
:101FC000FEF776FE48451AD82069402811D03968B6
:101FD00021F47C3141EA0030386029E016E0FEF758
:101FE0006DFEA0EB08000228A4D828684007F6D5AB
:101FF000E6E7386820F47C3040F40030ECE73868DD
:10200000217C20F0FE4040EA0160E5E7286820F0EE
:1020100001002860FEF752FE804606E000E1FEF770
:102020004DFEA0EB0800022884D828684007F6D4AB
:102030002078C0065AD5DAF80000316800F0380080
:10204000DFF870B20828ABF1040B10D0182803D1C8
:1020500001F0030001280AD0E0690028286836D082
:1020600040F080002860FEF729FE804621E02868C5
:10207000C00521D5E069802872D11DE0206A2028A2
:102080001FD0396821F0F84141EA806038602DE0C6
:10209000DBF8001094F8202021F07C5141EA026125
:1020A000CBF8001022E0FEF709FEA0EB08000228A2
:1020B0009AD82868C005F6D5FEF7FAFD4845E7D856
:1020C000DCE7386820F0F84040F08040DEE720F0A0
:1020D00080002860FEF7F2FD074604E0FEF7EEFD03
:1020E000C01B0228A0D82868C005F7D420780007B4
:1020F00028D5714960694C3100288846084609682E
:1021000010D041F001010160FEF7D8FD074604E060
:10211000FEF7D4FDC01B022886D8D8F8000080073F
:10212000F6D50FE021F001010160FEF7C7FD07467B
:1021300004E0FEF7C3FDC01B022871D8D8F80000E8
:102140008007F6D42078800623D5A0690028286867
:1021500010D040F480502860FEF7B0FD074605E03F
:102160002EE1FEF7ABFDC01B022859D82868800479
:10217000F7D50EE020F480502860FEF79FFD07465B
:1021800004E0FEF79BFDC01B022849D828688004A4
:10219000F7D4207840074DD5DFF82881D8F8001013
:1021A00041F48071C8F80010FEF788FD074604E08E
:1021B000FEF784FDC01B642832D8D8F80000C005A3
:1021C000F6D53D4FA068483701280AD008B1052848
:1021D00013D0386820F001003860386820F004001F
:1021E00002E0386840F001003860A06841F28839A8
:1021F00090B1FEF763FD80460AE0386840F00400C5
:102200003860EEE7FEF75AFDA0EB0801494507D814
:1022100038688007F6D50DE0FEF750FD804606E0F1
:1022200084E0FEF74BFDA0EB080149457ED83868F5
:102230008007F6D4616AD9B3DAF80000DFF8788055
:10224000C0F3C200032808F1080870D028680229EA
:1022500020F08070286003D0FEF730FD044684E053
:10226000FEF72CFD074604E0FEF728FDC01B022800
:1022700078D828688001F7D4306840F2F331884379
:10228000E16A40EA0110A16A0843306094F8340022
:102290004FF4FE02218E4002491EA0F5007080B26C
:1022A000C1F308010843218F491E02EA01410BE0F6
:1022B00088E00000104402582844025800440258A4
:1022C0000444025800480258084394F83C10120293
:1022D000491E02EA01610843C8F800003A48016853
:1022E00021F001010160384908310A684FF6F8739E
:1022F0009A43A36C42EAC3020A600168226C21F08F
:102300000C01114301600168626C21F0020111436C
:102310000160016841F480310160016841F40031DD
:102320000160016841F48021016001E01AE020E0D1
:10233000016841F001010160286840F08070286068
:10234000FEF7BCFC044604E0FEF7B8FC001B0228C4
:1023500008D828688001F7D534E0FEF7AFFC001BF1
:10236000022802D90320BDE8F09F28688001F4D438
:1023700028E03268D8F80000012921D0A36A02F0D1
:10238000030199421CD1E16AC2F30512914217D1AF
:10239000216BC0F30802491E8A4211D1616BC0F360
:1023A0004622491E91420BD1A16BC0F30642491E41
:1023B000914205D1E16BC0F30660491E814201D014
:1023C0000120D0E70020CEE72C4402587047704728
:1023D00070470000F0B590F83C20012A3CD0012560
:1023E00080F83C50022280F83D2003685A689C68BF
:1023F0001A4E1B4FB34201D0BB4204D122F4700CE1
:102400004A6842EA0C0222F0700C0A6842EA0C02A6
:102410005A600268B24213D0B2F1804F10D0114B13
:102420009A420DD0104B9A420AD0104B9A4207D0D4
:10243000BA4205D00E4B9A4202D00E4B9A4204D1BA
:10244000896824F080031943916080F83D50002191
:1024500080F83C100846F0BD0220F0BD00000140AD
:10246000000401400004004000080040000C00404F
:10247000001800400040014010B5040003D094F85B
:102480003D0010B107E0012010BD002084F83C00A1
:10249000204600F023F8022084F83D002068211D2A
:1024A00001F066F8012084F8480084F83E0084F8C2
:1024B0003F0084F8400084F8410084F8420084F82A
:1024C000430084F8440084F8450084F8460084F80A
:1024D000470084F83D00002010BD000008B50068EA
:1024E0000B49884212D10B48016841F0010101609B
:1024F00000680022052100F0010000901820FEF77E
:102500007FFCBDE808401820FEF76CBC08BD000049
:1025100000000140F044025890F83D10012901D01C
:1025200001207047022180F83D100168CA6842F01E
:102530000102CA6000681349884214D0B0F1804F8C
:1025400011D0114988420ED0104988420BD0104951
:10255000884208D00F49884205D00F49884202D0EE
:102560000E49884207D181680D4A1140062906D0DC
:10257000B1F5803F03D0016841F001010160002006
:1025800070470000000001400004004000080040C7
:10259000000C0040000401400018004000400140D1
:1025A0000700010070B5044690F83C0000250128A2
:1025B00015D0012684F83C60022084F83D00206894
:1025C0008268364B1A4022F47F4282600868702885
:1025D00002462FD010DC10F00F0F03D022E04FF096
:1025E000020070BD4FEA201007281BD2DFE800F080
:1025F000535353534B394100B0F1101F4BD009DCFA
:10260000B0F5805F0FD0B0F5005F1ED0B0F5801F31
:1026100008D140E02038B0F580103CD010283AD0E6
:10262000202838D0012584F83D60002084F83C0043
:10263000284670BD4A682068D1E9021300F0F8FF0F
:102640002068816841F0770109E04A682068D1E993
:10265000021300F0EDFF2068816841F48041816041
:10266000E1E7CA684968206801F060F820685021F5
:1026700006E0CA684968206801F069F820686021AE
:1026800000F0E0FFCFE7CA684968206801F04EF823
:1026900020684021F4E720681146F1E788FFCEFF6B
:1026A000704770B50446006801694FF00005C943E2
:1026B000890715D4C168C943890711D4E91E01618E
:1026C00001202077206880698007204602D0FFF72C
:1026D000E7FF04E000F0A7F8204600F0A5F8257712
:1026E00020680169C943490717D4C168C94349072C
:1026F00013D46FF004010161022020772068806903
:1027000010F4407F204602D0FFF7CAFF04E000F03B
:102710008AF8204600F088F8257720680169C943C7
:10272000090716D4C168C943090712D46FF008011C
:102730000161042020772068C0698007204602D00C
:10274000FFF7AEFF04E000F06EF8204600F06CF8F2
:10275000257720680169C943C90617D4C168C943F0
:10276000C90613D46FF0100101610820207720689A
:10277000C06910F4407F204602D0FFF791FF04E0CB
:1027800000F051F8204600F04FF8257720680169E5
:10279000C943C90708D1C168C943C90704D1891E03
:1027A0000161204600F041F820680169C94309062B
:1027B00009D4C168C943090605D46FF080010161DD
:1027C0002046FFF704FE20680169C943C90509D402
:1027D000C168C943090605D46FF4807101612046C0
:1027E000FFF7F4FD20680169C943490609D4C168AF
:1027F000C943490605D46FF040010161204600F04D
:1028000044F820680169C94389060BD4C168C943EB
:10281000890607D46FF0200101612046BDE87040B1
:10282000FFF7D6BD70BD704770470068B0F1804FAC
:1028300001D1FEF749BA704770B5044690F83C00E4
:10284000012810D0012584F83C50022084F83D0076
:10285000204600F001FF002138B184F83D500120EE
:1028600084F83C1070BD022070BD2068C26822F060
:102870004002C2602068C26822F48042C26084F8CC
:102880003D50002084F83C1070BD704790F88010D7
:10289000012918D0012180F880102421C0F884106B
:1028A00050F8641B0A680B6823F001030B6022F0E8
:1028B00000510022026050F8643C1960202101623E
:1028C000027710467047022070477047704770B516
:1028D000044690F8800001281DD0012084F8800073
:1028E0002420C4F8840020680568026822F00102F0
:1028F00002602068826822F060620A43826020469B
:1029000000F038FF206805602020C4F88400002013
:1029100084F8800070BD022070BD70B5044690F848
:10292000800001281DD0012084F880002420C4F8F4
:10293000840020680568026822F0010202602068B5
:10294000826822F060420A438260204600F012FF53
:10295000206805602020C4F88400002084F88000EE
:1029600070BD022070BD704770477047D0F884106A
:10297000D0F88800084370472DE9F0410368044609
:10298000D86919689A6840F60F0528424FF000058B
:1029900009D186067ED501F0200602F080573E431D
:1029A00078D0216F61E1C64EC64F16400F403743C5
:1029B00070D0C70709D0CF0507D501271F62D4F80B
:1029C0008C3043F00103C4F88C3083070AD5D30759
:1029D00008D0276802233B62D4F88C3043F004030C
:1029E000C4F88C3043070AD5D30708D027680423DE
:1029F0003B62D4F88C3043F00203C4F88C300307F8
:102A00000CD501F02003334308D026680823336235
:102A1000D4F88C3043F00803C4F88C3003050BD590
:102A20004B0109D526684FF400633362D4F88C302B
:102A300043F02003C4F88C30D4F88C30002B3AD00B
:102A4000800609D501F0200002F08051084303D030
:102A5000216F09B120468847D4F88C002168896825
:102A6000490602D410F0280F27D0204600F042FF7C
:102A70002068806840061BD52068083050E8001F99
:102A800021F0400140E80012002AF5D1E06F78B152
:102A90008D4900E017E00165E06FFDF7D7FE0028E3
:102AA00009D0E06F016D00E02046BDE8F041084725
:102AB0002046FFF75AFFBDE8F0812046FFF755FF9B
:102AC000C4F88C50F7E7E76E2026012F7ED1C706A9
:102AD0007CD5CF067AD51020186220688068400621
:102AE0007DD5E16F794A0868904234D0774A183230
:102AF000904230D0754A303290422CD0734A4832DE
:102B0000904228D0714A6032904224D06F4A783285
:102B1000904220D06D4A903290421CD06B4AA8322D
:102B2000904218D06A4A904215D0694A18329042B1
:102B300011D0674A303290420DD0654A48329042F7
:102B400009D0634A6032904205D0614A783290429F
:102B500001D05F4A903240680004000CABD0B4F85A
:102B60005C208242A7D9A4F85E00C869B0F5807FD6
:102B70002BD0206850E8001F21F4807140E800123B
:102B8000002AF6D12068083050E8001F21F001012A
:102B900040E80012002AF5D12068083050E8001FF4
:102BA00021F0400140E80012002AF5D1C4F8886005
:102BB000E566206850E8001F21F0100140E800128F
:102BC000002AF6D1E06FFDF791FC01E038E006E065
:102BD000B4F85C00B4F85E10401A81B22CE0B4F88E
:102BE0005C00B4F85E10401A81B2B4F85E000028B0
:102BF000B4D00029B2D0206850E8002F22F490729F
:102C000040E80023002BF6D12D4BDB432068083031
:102C100050E8002F1A4040E80027002FF6D1C4F8F2
:102C20008860E5662567206850E8002F22F01002D2
:102C300040E80023002BF6D12046FFF746FE3AE796
:102C4000C70209D5570207D54FF4801018622046F5
:102C5000BDE8F041FFF788BE03060AD501F0800306
:102C600002F40002134304D0616F00297FF41CAF0B
:102C700021E7420611D54A060FD52046016851E8E2
:102C8000002F22F0400241E80023002BF6D1C0F8CB
:102C90008460456700F050F90DE7020206D54A004E
:102CA00004D52046BDE8F041FFF75DBEC001C6D5A2
:102CB0000029C4DA2046BDE8F041FFF707BE000056
:102CC0000100001020010004E1380008100002405B
:102CD0001004024010B5040003D0D4F8840010B1F1
:102CE00007E0012010BD002084F88000204600F09D
:102CF00027F82420C4F884002068016821F001012D
:102D00000160204601F034F80128EBD0A06A10B130
:102D1000204600F051FD2068416821F49041416057
:102D20002068816821F02A0181602068016841F0F3
:102D3000010101602046BDE8104000F0A1BD000087
:102D400030B5B5B0044614212FA8FDF779FBBC219E
:102D50006846FDF775FB1B49206888422FD1022584
:102D60006846002400951D94FEF7F2F908B1FDF7BE
:102D7000BBFB1548016841F400310160006800F4B4
:102D80000030349010480838016841F008010160B3
:102D900000682FA9CDE9305400F00800349060207D
:102DA0002F900720CDE932400848FDF785FE00222C
:102DB00005212620FEF724F82620FEF713F835B06B
:102DC00030BD000000440040E8440258000C0258A6
:102DD00030B4D0F88830202B20D1E1B1DAB190F8AE
:102DE0008030012B1AD0012380F880300023C36685
:102DF0000B4C0368A3420BD05B681B0208D5036829
:102E000053E8004F44F0806443E80045002DF6D1BC
:102E100030BC01F07BB9012030BC70470220FBE7D9
:102E2000000C005830B50068114988420CD1114A95
:102E30005088010408D411464FF000034404097877
:102E400006D50A2901D0538030BD40F400400DE082
:102E50000D2909D0084DC0F30D04401C80B2C728CD
:102E600029555080EFD830BD40F48040508030BDAF
:102E7000004400400C000024A80400242DE9F8437D
:102E80000446D0F884001F4615460E46202851D12E
:102E9000DEB1D5B194F8800001284BD0012084F830
:102EA00080004FF00008C4F88C802120C4F8840012
:102EB0001834FDF703FFA5878146E58754F8100C09
:102EC000183CB0F5805F03D004E00120BDE8F88332
:102ED000206920B13546002684F8808010E0002566
:102EE000FAE78021204601F09DF9B8B9C5B115F87F
:102EF000010B21688862B4F85600401EA4F8560001
:102F0000B4F856004B464FF0000200970028E8D175
:102F10004FF04001204601F085F930B10320D5E79C
:102F200036F8020BC0F30800E3E72020C4F8840061
:102F30000020CBE70220C9E77047FEE7114810B533
:102F400090B0D0E90010CDE90E100EA801F06EFB94
:102F50000D4C1C220B490831A0606846FDF749FA68
:102F60000021684601F06AFB06491C22206007A880
:102F70002431FDF73EFA002107A801F05FFB6060F5
:102F800010B010BD985600080000002430B587B07E
:102F900014216846FDF754FA2248016841F0800187
:102FA0000160016801F080010591016841F00401B0
:102FB0000160016801F004010591016841F001011F
:102FC0000160016801F001010591016841F0020111
:102FD0000160016801F002010591016841F00801FA
:102FE0000160016801F008010591016841F04001AC
:102FF000016000684FF4F0740B4D002200F04000B7
:10300000214605902846FDF74DFE00210094012041
:10301000CDE90101284603916946FDF74DFD07B052
:1030200030BD0000E04402580004025810B58CB0D6
:10303000002468461421089409940A940B94FDF71F
:10304000FFF91B481949059406940794C0E9001438
:103050004FF6FF71C0E90241046144618461FFF7EA
:103060000BFA08B1FDF740FA4FF480500890104871
:1030700008A9FFF797FA08B1FDF736FA0620009085
:10308000102001900A486946FFF7D6FB08B1FDF70A
:103090002BFA074805A9059406940794FFF79AF9B7
:1030A000002801D0FDF720FA0CB010BD000001404F
:1030B0003C03002418480C22164910B501604FF457
:1030C000E131416000218160C160C0E90412816189
:1030D000C161016241628162FFF7FCFD08B1FDF749
:1030E00003FA0D480021FFF718FC08B1FDF7FCF9C1
:1030F00009480021FFF7EBFB08B1FDF7F5F9064899
:10310000FFF7C4FB002803D0BDE81040FDF7ECB981
:1031100010BD00000044004088030024FEE7FEE7E5
:103120002DE9F047DFF8088104460E464FF000090C
:10313000D8F80000C043800709D03D4D283D2868DD
:1031400020F080602860FDF7B9FD074607E0012008
:10315000BDE8F087FDF7B2FDC01B022860D82868E3
:103160000001F7D4D8F80010226821F47C3141EA3C
:103170000231C8F80010207A4FF4FE02A188400204
:10318000491EA0F5007080B2C1F308010843A1896F
:10319000491E02EA01410843217C1202491E02EA4B
:1031A000016108432249103108602148001D01686F
:1031B000626921F0C001114301600168A26921F038
:1031C000200111430160016821F0100101601849DC
:1031D00014310A684FF6F8739A43E36942EAC3026E
:1031E0000A60016841F0100101606EB10168012EB2
:1031F0000ED041F400110160286840F08060286022
:10320000FDF75CFD04460DE0016841F40021F2E7A2
:1032100041F48011EFE7FDF751FD001B022801D9B1
:10322000032095E728680001F5D5484690E700009F
:10323000284402582DE9F047DFF8088104460E467D
:103240004FF00009D8F80000C043800709D03D4D79
:10325000283D286820F080502860FDF72FFD0746A4
:1032600007E00120BDE8F087FDF728FDC01B02281C
:1032700060D828688000F7D4D8F80010228821F0A0
:103280007C7141EA0251C8F80010207A4FF4FE0226
:10329000A1884002491EA0F5007080B2C1F3080168
:1032A0000843A189491E02EA01410843217C120218
:1032B000491E02EA01610843224918310860214889
:1032C000001D0168626921F44061114301600168D9
:1032D000A26921F4007111430160016821F4807139
:1032E000016018491C310A684FF6F8739A43E36984
:1032F00042EAC3020A60016841F4807101606EB164
:103300000168012E0ED041F080710160286840F004
:1033100080502860FDF7D2FC04460DE0016841F4BE
:103320008001F2E741F40001EFE7FDF7C7FC001B65
:10333000022801D9032095E728688000F5D5484682
:1033400090E7000028440258064C4FF4FA754021DB
:103350002046FDF79FFC04A000F0ECFF284601F09A
:1033600059F9F4E7000402584C65643220666C6138
:1033700073680D0A00000000064C4FF47A75202196
:103380002046FDF787FC04A000F0D4FF284601F09A
:1033900041F9F4E7000402584C65643120666C6121
:1033A00073680D0A00000000502010B580F31188EA
:1033B000BFF34F8FBFF36F8F02F020F818B10449AD
:1033C0004FF080500860002080F3118810BD00008D
:1033D00004ED00E030B59DB04C216846FDF730F8B3
:1033E000202113A8FDF72CF80220FDF73BFD214812
:1033F0000024016821F00101016000681E48016895
:1034000041F440410160016801F440411B910168B1
:10341000C9438904FBD401200090052100040190D8
:1034200002200990CDE90A01A0210E90CDE90C10EF
:1034300008250F90CDE9105468461294FEF738FD28
:1034400008B172B6FEE714A93F201390032081E86B
:103450003100402017901A900101CDE91801022196
:1034600013A8FEF7DFFA002801D072B6FEE71DB000
:1034700030BD00002C040058184802582C4810B5E4
:10348000016841F4700101602A4A106800F00F00E1
:10349000072804D2106820F00F00C01D10602649D4
:1034A000086840F001000860234B002010331860CA
:1034B0000B68224C23400B60136803F00F03072BAB
:1034C00004D9136823F00F03DB1D13601A4A183266
:1034D0001060121D1060121D1060174B184A28331F
:1034E0001A601B1D174A1A601B1D174A1A601B1D04
:1034F00018601B1D1A601B1D18601B1D1A601A1D09
:1035000010600A6822F480220A600B49603108606A
:103510000E4800686FF30F00B0F1005F03D20C4952
:103520000120C1F8080143F2D2000A49086010BD29
:1035300088ED00E000200052004402587FEDF6EADA
:10354000000202020000FF01800201010010005C85
:1035500000800051004000520148FFF7A2B800006F
:103560003C0300240148FFF79CB8000070050024CC
:103570002DE9F04702684FF0804A254C254D264E34
:10358000A042264F264B09D0504507D0A84205D06F
:10359000B04203D0B84201D0984204D122F0700C5E
:1035A0004A6842EA0C02DFF87CC0DFF87C80A04267
:1035B000DFF878900FD050450DD0A8420BD0B04224
:1035C00009D0B84207D0984205D0604503D04045A5
:1035D00001D0484503D122F44075CA682A434D6999
:1035E00022F080022A4302608A68C2620A6882620C
:1035F000A04207D0984205D0604503D0404501D095
:10360000484501D10969016301214161BDE8F087A5
:10361000000001400004004000080040000C004091
:1036200000040140004001400044014000480140C6
:1036300010B5846842EA03220A4324F47F442243FB
:10364000826010BD8268034B1A400A4342F00701B2
:10365000816070478FFFCFFF70B5026800249568C6
:103660002E4B1D404B682B432D4D2B400D681D43A9
:1036700095604A68B2F1101F25D014DC402A2BD087
:1036800007DC02B3102A1ED0202A1CD0302A19D100
:1036900019E0502A36D0602A3AD0702A15D0B2F5F7
:1036A000801F0FD10FE01F49501A8A420BD002DC55
:1036B00000F14002E5E7102805D01B49401802D070
:1036C000102800D00124204670BD8A680068D1E926
:1036D0000313FFF7ADFFF6E70A68052A10D002686A
:1036E000156A136A23F0010313620268936909697A
:1036F00023F0F00343EA0111916100680562E2E7FB
:10370000012070BD0A698968006800F00FF8DAE7E7
:103710000A698968006800F01AF8D4E78FFFCFFFC4
:10372000F8FFFEFF600010006000F0FF10B5046AB3
:10373000036A23F001030362836923F0F00343EA81
:103740000213836124F00A020A43026210BD10B51D
:10375000036A23F0100303628469036A24F470444B
:1037600023F0A00344EA0232826143EA01110162BC
:1037700010BD000030B5416EB9B102689168926821
:10378000C1F342610B4C520FA35C1D0104F108030D
:103790009A5CB5FBF2F2A0F86A20625C595C1201F7
:1037A000B2FBF1F1A0F8681030BD0121A0F86A1059
:1037B000F8E70000F056000890F82810C90706D076
:1037C00001684A68C36A22F400321A434A6090F8DA
:1037D0002810890706D501684A68036B22F48032F5
:1037E0001A434A6090F82810490706D501684A68CC
:1037F000436B22F480221A434A6090F8281009078C
:1038000006D501684A68836B22F400421A434A6075
:1038100090F82810C90606D501688A68C36B22F49F
:1038200080521A438A6090F82810890606D50168EC
:103830008A68036C22F400521A438A6090F82810B8
:10384000490611D501684A68436C22F480121A4374
:103850004A60416CB1F5801F06D101684A68836CEB
:1038600022F4C0021A434A6090F82810090606D5CF
:1038700001684A68C06C22F4002202434A60704723
:10388000F8B500250446C0F88C50FDF717FA074636
:10389000206800686FF07E46000708D500223B468E
:1038A0004FF400112046009600F0BCFC60B920687F
:1038B000006840070AD500223B464FF480012046AD
:1038C000009600F0AFFC08B10320F8BD2020C4F83A
:1038D0008400C4F88800E566002084F88050F8BDB4
:1038E00010B5806B0021A0F85E10A0F85610FFF70D
:1038F0003CF810BD10B5016851E8002F22F4907219
:1039000041E80023002BF6D10E4B0168083151E845
:10391000002F1A4041E80024002CF6D1C16E012985
:1039200008D1016851E8002F22F0100241E800237D
:10393000002BF6D12021C0F888100021C166016754
:1039400010BD0000FEFFFFEF10B5B0F86020D0F80A
:1039500088300168222B04D0886940F00800886113
:1039600010BD496A836D11401980816D891C816584
:10397000B0F85E10491EA0F85E10B0F85E10002985
:10398000EED1016851E8002F22F4907241E8002343
:10399000002BF6D10168083151E8002F22F0010216
:1039A00041E80023002BF5D12021C0F88810002128
:1039B0000167C26E012A02D0FFF734FA10BDC1665A
:1039C000016851E8002F22F0100241E80023002B8B
:1039D000F6D10168CA69D243D20601D410220A6224
:1039E000B0F85C10FEF771FF10BD00002DE9F04744
:1039F000B0F8609004460068C56907688668D4F826
:103A00008810222905D0816941F008018161BDE853
:103A1000F087B4F868804FF0000A61E02068406ADF
:103A2000A16D00EA09000880A06D801CA065B4F8B3
:103A30005E00401EA4F85E002068C56969072DD0AD
:103A4000E90709D0F90507D501210162D4F88C00F6
:103A500040F00100C4F88C00A8070AD5F00708D090
:103A6000216802200862D4F88C0040F00400C4F8F9
:103A70008C0068070AD5F00708D021680420086286
:103A8000D4F88C0040F00200C4F88C00D4F88C000C
:103A900020B12046FEF769FFC4F88CA0B4F85E00A0
:103AA000F0B9206850E8001F21F4807140E800124E
:103AB000002AF6D1274A2068083050E8001F11403C
:103AC00040E80013002BF6D12020C4F88800C4F889
:103AD00070A05046E16E012925D02046FFF7A2F9DB
:103AE000B8F1000F01D0A80698D4B4F85E00002801
:103AF0008DD0B4F86810814289D92068083050E828
:103B0000001F21F0805140E80012002AF5D1124830
:103B10002067206850E8001F41F0200140E80012B3
:103B2000002AF6D173E7E066206850E8001F21F014
:103B3000100140E80012002AF6D12068C169C9438B
:103B4000C90601D410210162B4F85C102046FEF7CA
:103B5000BCFEC5E7FEFFFFEF4939000810B5B0F81D
:103B60006020D0F888300168222B04D0886940F0AA
:103B70000800886110BD496A1140826D1170816D25
:103B8000491C8165B0F85E10491EA0F85E10B0F8BF
:103B90005E100029EED1016851E8002F22F49072E6
:103BA00041E80023002BF6D10168083151E8002FCD
:103BB00022F0010241E80023002BF5D12021C0F8BA
:103BC000881000210167C26E012A02D0FFF72AF98E
:103BD00010BDC166016851E8002F22F0100241E8D3
:103BE0000023002BF6D10168CA69D243D20601D462
:103BF00010220A62B0F85C10FEF767FE10BD0000EC
:103C00002DE9F047B0F8609004460068C569076880
:103C10008668D4F88810222905D0816941F008010E
:103C20008161BDE8F087B4F868804FF0000A61E078
:103C30002068406AA16D00EA09000870A06D401C70
:103C4000A065B4F85E00401EA4F85E002068C56957
:103C500069072DD0E90709D0F90507D501210162CF
:103C6000D4F88C0040F00100C4F88C00A8070AD5F5
:103C7000F00708D0216802200862D4F88C0040F0D8
:103C80000400C4F88C0068070AD5F00708D0216842
:103C900004200862D4F88C0040F00200C4F88C00C4
:103CA000D4F88C0020B12046FEF75FFEC4F88CA04B
:103CB000B4F85E00F0B9206850E8001F21F480716C
:103CC00040E80012002AF6D1274A2068083050E860
:103CD000001F114040E80013002BF6D12020C4F84B
:103CE0008800C4F870A05046E16E012925D0204616
:103CF000FFF798F8B8F1000F01D0A80698D4B4F8EF
:103D00005E0000288DD0B4F86810814289D92068FF
:103D1000083050E8001F21F0805140E80012002ACE
:103D2000F5D112482067206850E8001F41F02001BB
:103D300040E80012002AF6D173E7E066206850E8F8
:103D4000001F21F0100140E80012002AF6D120687F
:103D5000C169C943C90601D410210162B4F85C10DD
:103D60002046FEF7B2FDC5E7FEFFFFEF5D3B000812
:103D70002DE9F043044600680025DFF8548387B03E
:103D80002269A168E369114362691A431143026819
:103D9000D04B1A400A43026020684168E26821F46F
:103DA0004051114341602168A069414501D0226A18
:103DB00010438A68C84B1A4002438A602068C16A6F
:103DC000626A21F00F011143C162C4492268C448EC
:103DD0008A420ED1006800F03800182873D047DC02
:103DE000B8B3082879D010286FD178E028287ED180
:103DF0007BE0BC498A4209D1006800F00700062830
:103E000075D2DFE800F0546A6C6E7072B6498A426F
:103E100009D1006800F00700062868D2DFE800F04A
:103E2000475D5F616365B1498A4209D1006800F06E
:103E3000070006285BD2DFE800F03A50525456588B
:103E4000AB498A420BD1006800F0070006284ED229
:103E500000E010E0DFE800F02B4143454749A54969
:103E60008A420AD1006800F03800182839D0B7DD3E
:103E70002028BBD137E001213AE09F498A4209D18D
:103E8000006800F00700062831D2DFE800F01026B5
:103E9000282A2C2E99498A420BD1006800F007008D
:103EA000062824D2DFE800F003191B1D1F21002182
:103EB0001EE042451BD18A48001D006800F0070043
:103EC000062814D202E00CE007E010E0DFE800F082
:103ED000030507090B0D02210AE0042108E008216F
:103EE00006E0102104E0202102E0402100E08021D2
:103EF00083487B4B4FF4004C824E4FF00009071172
:103F0000543B42454DD1102919D006DC022909D075
:103F100004290AD008297DD10CE020293DD0402970
:103F200078D13CE0FCF7C6FF10E06846FCF7D4FF10
:103F300001980BE003A8FDF76DF8049806E01968F6
:103F4000890605D51968C1F3C101C840002823D0EE
:103F5000616A36F811206668B0FBF2F106EB4603A1
:103F60008B4257D8B1EB063F54D800234F46194631
:103F7000FCF70EFA0902020241EA106170081018FB
:103F8000324679410023FCF703FA5F4AA0F54071FD
:103F900091423FD82168C86086E03846D8E760463D
:103FA000D6E7E2694FF6EF78624545D1082918D087
:103FB00005DC59B101290CD0042974D10CE0102979
:103FC00014D0202934D040296DD133E0FDF7B4FE60
:103FD00013E0FDF7C3FE10E06846FCF77DFF019893
:103FE0000BE003A8FDF716F8049806E019688906A7
:103FF00004D51968C1F3C101C84080B3616A36F8BD
:104000001110B0FBF1F04100606801EB5001B1FB11
:10401000F0F000E047E0A0F11002424543D84FF62F
:10402000F0710140C0F3420001432068C1603BE0F1
:104030003846E3E76046E1E7082919D005DC59B1C5
:1040400001290DD004292ED10DE0102915D02029E9
:1040500037D0402927D136E0FDF76EFE14E023E08B
:10406000FDF77CFE10E06846FCF736FF01980BE098
:1040700003A8FCF7CFFF049806E01968890604D569
:104080001968C1F3C101C84070B1616A36F81110F6
:10409000B0FBF1F1606801EB5001B1FBF0F0A0F171
:1040A0001001414511D901250120A4F86A00A4F8A6
:1040B00068002846C4F87090C4F8749007B0BDE852
:1040C000F0833846E1E76046DFE780B262E7000050
:1040D000000C0058F369FFCFFFF4FF1100100140FE
:1040E000544402580044004000480040004C004046
:1040F000005000400014014000780040007C004067
:104100000090D003D8560008FFFC0F0070B5816501
:10411000A0F85C20A0F85E2000240467FF238168DB
:104120004FF48055A94204D10169F9B940F2FF1159
:1041300022E07F26C1B1B1F1805F1AD0A0F86040C3
:10414000C0F88C402221C0F888100168083151E87D
:10415000003F43F0010341E80036002EF5D1416EE7
:10416000B1F1005F0ED032E0016941B9A0F86030D2
:10417000E6E7016919B13F21A0F86010E0E7A0F877
:104180006060DDE7B0F86810914220D88168A942EC
:1041900001D10169C9B11F49016780F880400169F7
:1041A00041B1016851E8002F42F4807241E80023D8
:1041B000002BF6D10168083151E8002F42F08052FF
:1041C00041E80023002BF5D121E01349E4E78168A1
:1041D000A94201D1016979B11049016780F8804095
:1041E000016959B1016851E8002F42F4907241E829
:1041F0000023002BF6D10AE00949EEE7016851E8F7
:10420000002F42F0200241E80023002BF6D10020CD
:1042100070BD0000013C0008ED3900085D3B00085E
:10422000493900082DE9F0471F4690460E460446DE
:10423000089D4FF0000A4FF0200949E0681C47D064
:10424000FCF73CFDC01BA8422AD84DB3206801688A
:1042500049073DD5C069C043000539D421684FF4F2
:1042600000600862206850E8001F21F4D07140E827
:104270000012002AF6D12068083050E8001F21F013
:10428000010140E80012002AF5D1C4F88490C4F876
:104290008890C4F88C90032084F880A0BDE8F08753
:1042A000206850E8001F21F4D07140E80012002A75
:1042B000F6D12068083050E8001F21F0010140E8E5
:1042C0000012002AF5D1C4F88490C4F88890E2E77F
:1042D0002068C06936EA000004D000204045ADD017
:1042E0000020DBE70120F9E770B50D4D00240D48F3
:1042F000FEF742FB02E0641CAC4204D80A48FEF719
:1043000035FB2028F7D1002402E0641CAC4206D81B
:10431000064901220448FEF75BFD0028F5D170BD77
:10432000FFFF010088030024180400240C0000246F
:10433000FEE700000FB4054B10B503A9044A02982C
:1043400000F028F810BC5DF814FB00004D45000893
:10435000100000240907090E002804DB00F1E0200A
:1043600080F80014704700F00F0000F1E02080F8A2
:10437000141D704702E008C8121F08C1002AFAD1B4
:1043800070477047002001E001C1121F002AFBD1D5
:10439000704700002DE9FF4F8BB09A460F46054647
:1043A000002606E025280BD052460D9990476D1C3B
:1043B000761C28780028F5D10FB03046BDE8F08F84
:1043C0000024A0460122604900E0044315F8013FA3
:1043D000203B02FA03F00842F7D128782E2817D1A3
:1043E00015F8010F44F004042A280ED06FF02F02B4
:1043F0002878A0F1300109290AD808EB880102EBDE
:10440000410100EB01086D1CF2E757F8048B6D1CAD
:10441000287869283ED006DC0028CDD063280BD050
:10442000642804D136E0732810D075284BD052464A
:104430000D999047761C85E017F8040B8DF8000065
:1044400000208DF80100E946012003E057F8049BA5
:104450004FF0FF3061074FF0000401D40AE0641C04
:1044600044450DDA8442FADB19F804100029F6D12C
:1044700006E0641C8442FCDB19F804100029F8D122
:10448000264404E019F8010B52460D999047641E2A
:10449000F8D257E001CF4FF00A0B002802DA404271
:1044A0002D2102E0210504D52B218DF824100121B6
:1044B00003E0E10705D02021F7E70DF1200908917D
:1044C0000CE00021F9E701CF4FF00A0BF9E759465C
:1044D000FBF7C1FF01F1300209F8012D0028F6D1E8
:1044E000ADEB090000F1200B600701D44FF001088B
:1044F000D84502DDA8EB0B0000E000208046002438
:1045000006E009A85246005D0D999047641C761C90
:1045100008988442F5DB04E0302052460D9990471C
:10452000761CB8F10001A8F10108F5DC05E019F8E6
:10453000010B52460D999047761CBBF10001ABF17F
:10454000010BF4DC6D1C34E70928010013B50448A5
:1045500001224FF6FF736946FEF790FC00981CBDE0
:1045600088030024264C206881034FF0000011D4FA
:10457000BFF34F8FBFF36F8F22490860BFF34F8F98
:10458000BFF36F8F216841F400312160BFF34F8F7B
:10459000BFF36F8F2168C90322D4194970310860B5
:1045A000BFF34F8F081F006843F6FF75154E103696
:1045B000C0F34E31C0F3C90305EA4112184642EA7E
:1045C00080773760401EFAD2491EF5D2BFF34F8F75
:1045D000206840F480302060BFF34F8FBFF36F8FAF
:1045E000FCF77AFBFEF7F6FEFEF7D0FCFEF71EFDA9
:1045F000FEF760FDFEF7A2FC00F013F8FEE70000F6
:1046000014ED00E050EF00E001460020842900D0C6
:10461000C81C704710B500B9012000F0B9FB00209C
:1046200010BD10B500F000FC002010BD41684FF037
:10463000010009B100F0E9BC00F0DCBC7FB50D461B
:1046400041690446B0F9080081B1A16971B1FFF771
:10465000DBFFD4E905122B468DE807002269D4E977
:10466000001000F090FE039004B070BDFFF7CCFF87
:1046700003A92B46CDE90001208A82B2D4E90010BB
:1046800000F054FE012801D00020EDE70398EBE78D
:104690002DE9F041184E0F460446F5683068001DBC
:1046A00000F0AEFA38B9306890F82C10012088403C
:1046B000316981433161601C07D137B13168BDE890
:1046C000F0410E48091D00F0DFBA30682C44AC42BE
:1046D0004460316805D2B06B091DBDE8F04100F0BF
:1046E000BBBA706B091D00F0B7FAB06A844200D201
:1046F000B462BDE8F0810000280000249806002480
:104700002DE9F041054600F0CBFA2E4EB068401C72
:10471000B06030682C4F10B1706940B32DE0356047
:10472000B068012829D1002404EB840007EB800045
:1047300000F084FA641C072CF6D323488C3000F078
:104740007DFA2148A03000F079FA1F48B43000F01B
:1047500075FA1D48C83000F071FA1B48DC3000F0D3
:104760006DFA19488C3070631430B06305E030681E
:10477000E96AC06A884200D835600121706A401C2D
:1047800070626864E86A326981401143316100EB0C
:104790008000291D07EB800000F076FA00F0A0FAF7
:1047A000706900280CD03068E96AC06A884207D274
:1047B00006494FF080500860BFF34F8FBFF36F8FF3
:1047C000BDE8F08128000024BC05002404ED00E0D1
:1047D0002DE9F041856B002617460446026C82B134
:1047E000C7B1E068FBF705FEE168206C091AE160DB
:1047F0002268914202D2A168081AE060022F16D006
:1048000017E02068A8B9A06800F05EFE0646002008
:10481000A0600EE06068FBF7ECFD216C6068084466
:104820006060A168884204D32068606001E005B13F
:104830006D1E6D1CA5633046BDE8F08110B50446C1
:1048400090F8590058B101280CD002280FD0502000
:1048500080F31188BFF34F8FBFF36F8FFEE7206B9C
:1048600000F052FA2046BDE8104000F04DBA10BDED
:1048700010484FF47051420706D00E49C01D20F079
:104880000700411AC1F570510B4A00230144083951
:10489000C2E90003183A21F0070111604B600B6078
:1048A0000B1AC0E9001393604FF000405360506151
:1048B00070470000AC0600247C000024134E4FF02B
:1048C0008058134DDFF84C90A6F1C80711E000F0B6
:1048D000E7F9F068C468201D00F092F9A868401E4E
:1048E000A8606868401E686000F0FAF92046FFF78B
:1048F000A5FF68680028EAD138680128F9D9C9F805
:104900000080BFF34F8FBFF36F8FF2E78406002460
:104910002800002404ED00E0002807D00021816079
:1049200001600B460A46C16000F014BC704770B5C8
:104930001D46049C49B12260C4E90F0101212046B3
:1049400000F0C4FB84F84C5070BD2460F4E72DE9FE
:10495000F05F0E469A4691001746DDE90B940A9DDA
:10496000A5228346206BFBF764FD206B6FF00301EB
:1049700001EB8701084420F00707780707D0502093
:1049800080F31188BFF34F8FBFF36F8FFEE74FF0B7
:10499000000866B100202218315C82F83410315CC6
:1049A00011B1401C1028F6D384F8438001E084F84C
:1049B0003480072D00D30625E562201DC4E9135875
:1049C00000F047F904F1180000F043F92461C5F143
:1049D00007006462A061C4F8548084F8588052468D
:1049E0005946384600F0F6F8B9F1000F206001D0C2
:1049F000C9F80040BDE8F09F30B5114900E011460C
:104A00000A688242FBD34B685C18844203D1406839
:104A100018444860084643681C18944209D1084C61
:104A2000183C2468A24209D052681A4442600A68BD
:104A300012680260814200D0086030BD0460F9E76E
:104A40007C0000240648416B096829B1416BC968A4
:104A5000C9684968816270474FF0FF31FAE700008A
:104A60002800002408484068401C4FF0500080F3A4
:104A7000118804D0BFF34F8FBFF36F8FFEE7BFF3F2
:104A80004F8FBFF36F8FFEE7840000242DE9F041C4
:104A9000044600F005F994F9455004F1240609E0B4
:104AA000606A48B1304600F05BFD08B100F09EF945
:104AB0006D1E6DB2002DF3DC4FF0FF3684F84560BB
:104AC00000F00EF900F0ECF894F9445004F11007EE
:104AD00009E0206948B1384600F042FD08B100F015
:104AE00085F96D1E6DB2002DF3DC84F84460BDE8DD
:104AF000F04100F0F5B800002DE9F0410026054630
:104B000000F0C8F9324F386808B9FFF7B1FE78698C
:104B100005424ED1C5B3083568070ED005F0070031
:104B2000C0F108000544680707D0502080F31188C1
:104B3000BFF34F8FBFF36F8FFEE72DB378688542C9
:104B400037D8234918310846046801E02146044655
:104B50006068A84202D220680028F7D138688442F1
:104B600027D00E682068086008366068411B10294D
:104B70000FD96019420708D0502080F31188BFF385
:104B80004F8FBFF36F8FFEE713E041606560FFF763
:104B900033FF61687868401A7860BA68904200D242
:104BA000B860786901430020C4E90001F868401C3E
:104BB000F86000F00FFD700707D0502080F31188D7
:104BC000BFF34F8FBFF36F8FFEE73046BDE8F08134
:104BD00064000024031F10B54FF080741C601B1F7D
:104BE00021F001011960191F044B0B6014390A6090
:104BF000091F44386FF002020A6010BD654A0008C0
:104C0000D0E9013201699A60D0E901235A604A680B
:104C1000824201D182684A60002202610868401E17
:104C20000860086870470000034B036003F15C00F4
:104C30000860802010607047E00000244FF0FF32D1
:104C400000F10801C0E90112C160016100210160A9
:104C5000704700210161704730B50C68621C02D0BA
:104C600000F1080202E0026904E01A4653681D6878
:104C7000A542FAD953684B6099608A605160086117
:104C80000168491C016030BD42684A6093688B60CE
:104C900093685960916008610168491C0160704720
:104CA000502080F31188BFF34F8FBFF36F8F0A49F5
:104CB0004868401C486001280CD10848006810F082
:104CC000FF0F07D0502080F31188BFF34F8FBFF341
:104CD0006F8FFEE7704700008400002404ED00E0C1
:104CE0000849486828B1401E486001D180F3118806
:104CF0007047502080F31188BFF34F8FBFF36F8F41
:104D0000FEE700008400002470B500282AD0164D6C
:104D1000A0F1080460686969084207D1502080F357
:104D20001188BFF34F8FBFF36F8FFEE722683AB150
:104D3000502080F31188BFF34F8FBFF36F8FFEE7D2
:104D40008843606000F0A6F860686968084468609D
:104D50002046FFF751FE2869401C2861BDE87040DD
:104D600000F038BC70BD0000640000244FF0E0206B
:104D70000021016181614FF47A7204490968B1FB35
:104D8000F2F1491E416107210161704720000024B2
:104D9000020010B514D00F48006B38B1502080F3DA
:104DA0001188BFF34F8FBFF36F8FFEE700F072F8EB
:104DB00000211046FFF76CFC00F00CFC002807D126
:104DC00005494FF080500860BFF34F8FBFF36F8FDE
:104DD00010BD00002800002404ED00E002490A6A2A
:104DE0000260C96841607047280000240149012021
:104DF000C86170472800002410B50C4650B109491D
:104E000009681831FFF728FF2046BDE8104001214E
:104E1000FFF73EBC502080F31188BFF34F8FBFF3E4
:104E20006F8FFEE72800002410B586B0002405AA85
:104E300004A9039403A80494FFF7F6FEDDE9030137
:104E400000940023CDE9011010480EA1059A00F04E
:104E50009AFA0F490028C86211D0502080F31188B7
:104E6000BFF34F8FBFF36F8F4FF0FF308862012089
:104E70004861CC6006B0BDE8104000F041B806B013
:104E800010BD000049444C4500000000BD4800082A
:104E9000280000240248016B491C01637047000090
:104EA00028000024144A106B10B10120D061704713
:104EB0000020D06110691149B0FA80F0C0F11F00E4
:104EC00000EB800051F820306BB101EB800000F165
:104ED0000803416849684160994201D149684160CD
:104EE000C86810607047502080F31188BFF34F8F5F
:104EF000BFF36F8FFEE7000028000024BC050024EC
:104F000037481CB50168374A914207D1502080F3D9
:104F10001188BFF34F8FBFF36F8FFEE700683149F1
:104F2000491E884207D1502080F31188BFF34F8F6C
:104F3000BFF36F8FFEE72C4908780190FF200870BF
:104F400008788DF800009DF800009DF8002000F022
:104F5000F000904207D0502080F31188BFF34F8FAC
:104F6000BFF36F8FFEE79DF80000204C00F050006B
:104F700020700720A06006E0401EA0609DF80000A1
:104F800040008DF800009DF800000006A068F3D4F2
:104F9000032807D0502080F31188BFF34F8FBFF351
:104FA0006F8FFEE74FF44070A060019808700C48C6
:104FB0002030016841F470010160016841F07041E6
:104FC0000160FFF7D3FE00206060FBF793F908480B
:104FD000016841F040410160FBF778F900201CBDF9
:104FE00000ED00E071C20F4100E400E08400002405
:104FF00034EF00E000210246012010B500F012F865
:105000000446FFF789FC204610BD38B500220B4648
:1050100011460090012000F026F80446FFF77CFCC2
:10502000204638BDF8B5050017460E4613D005FBDF
:1050300006F05030FFF760FD04000AD0002084F82D
:10504000460004F150023B46314628460094FFF7E3
:105050006EFC2046F8BD502080F31188BFF34F8FBF
:10506000BFF36F8FFEE738B5049D18B153B1CAB1D5
:1050700081B120E0502080F31188BFF34F8FBFF340
:105080006F8FFEE7502080F31188BFF34F8FBFF37F
:105090006F8FFEE7502080F31188BFF34F8FBFF36F
:1050A0006F8FFEE739B1502080F31188BFF34F8F27
:1050B000BFF36F8FFEE750241C46012384F846306F
:1050C0002B460094FFF733FC204638BD70B5040032
:1050D0000D4625D0FFF7E4FDD4E90F20216802FB3F
:1050E0000011A1600021A163216861600A46D4E932
:1050F0000F01401E00FB0121E1604FF0FF3084F8FA
:10510000440084F8450004F110008DB1FFF796FDCE
:1051100004F12400FFF792FDFFF7E2FD012070BDCE
:10512000502080F31188BFF34F8FBFF36F8FFEE7DE
:1051300021690029F0D000F013FA0028ECD00449CE
:105140004FF080500860BFF34F8FBFF36F8FE3E7DE
:1051500004ED00E02DE9FF4F04001F4683B08B46AD
:105160004FF0000603D0BBF1000F08D011E0502033
:1051700080F31188BFF34F8FBFF36F8FFEE7206C72
:1051800038B1502080F31188BFF34F8FBFF36F8F7A
:10519000FEE7022F0AD1E06B012807D0502080F3F0
:1051A0001188BFF34F8FBFF36F8FFEE700F018F940
:1051B000DFF800914FF080584FF0000A48B9059889
:1051C00038B1502080F31188BFF34F8FBFF36F8F3A
:1051D000FEE7FFF765FDA06BE16B884205D3022F68
:1051E00003D00598C8B1DEB11EE03A4659462046C4
:1051F000FFF7EEFA616A19B104F1240000F0B0F98A
:1052000028B1C9F80080BFF34F8FBFF36F8FFFF74E
:1052100067FD012007B0BDE8F08FFFF761FD21E0D9
:105220006846FFF7DBFD0126FFF75AFDFFF732FE68
:10523000FFF736FD94F94400401C01D184F844A0E6
:1052400094F94500401C01D184F845A0FFF748FDC2
:1052500005A9684600F030F830B12046FFF716FC8B
:1052600000F0B8F90020D5E7FFF71AFDA06BE16B5D
:10527000884201D1012500E00025FFF731FD95B1FD
:10528000059904F11000FFF7B7FD2046FFF7FEFB7C
:1052900000F0A0F900289CD1C9F80080BFF34F8F1F
:1052A000BFF36F8F95E72046FFF7F0FB00F092F910
:1052B0008FE7000004ED00E02DE9F04105000C4609
:1052C00011D0C4B1FFF7ECFC174EF1686B6822688F
:1052D000C81A571C17D02F68366AB74219D08B42AC
:1052E00017D8012410E0502080F31188BFF34F8FAE
:1052F000BFF36F8FFEE7502080F31188BFF34F8F0D
:10530000BFF36F8FFEE70024FFF7EAFC2046BDE8FD
:10531000F081824205D9101A20602846FFF75EFD11
:10532000F1E700202060DCE7280000242DE9FF5F82
:10533000994616468A4683469000DDE90E87FFF7B8
:10534000DBFB05001CD05C20FFF7D6FB040014D06B
:105350000020256384F859004B46CDE90087CDE94C
:105360000240324651465846FFF7F1FA2046FFF711
:10537000C7F9012004B0BDE8F09F2846FFF7C4FC40
:105380004FF0FF30F6E7F0B585B00546DDE90B04D8
:105390000A9EA8B1E4B15C2700972063022084F83C
:1053A0005900002004AFCDE90240CDE9006728464E
:1053B000FFF7CDFA2046FFF7A3F9049805B0F0BD3A
:1053C000502080F31188BFF34F8FBFF36F8FFEE73C
:1053D000502080F31188BFF34F8FBFF36F8FFEE72C
:1053E0000548416919B1006B18B1002070470120D0
:1053F0007047022070470000280000242DE9F0418A
:105400002F4F0026386B28B1B869401CB861304670
:10541000BDE8F081FD686D1CFD6013D1786B0068FC
:1054200038B1502080F31188BFF34F8FBFF36F8FD7
:10543000FEE7786BB96B7963B863386A401C3862F1
:10544000FFF700FBB86ADFF87C80854209D3786BF0
:105450000068A0B1786BC068C4686068854211D2EA
:10546000B8623868C06A00EB800158F82100012852
:1054700000D90126F8690028C9D00126C7E74FF0F6
:10548000FF30EDE7201DFFF7BBFBA06A18B104F168
:105490001800FFF7B5FBE06A01213A69814011432A
:1054A000396100EB800108EB8100211DFFF7ECFB67
:1054B000E06A3968C96A8842C9D30126C7E7000093
:1054C00028000024BC05002470B504004FF0000043
:1054D00041D0214D29688C4207D0502080F311889B
:1054E000BFF34F8FBFF36F8FFEE7216D71B1491E80
:1054F0002165E36CE26A9A422DD000292BD1201D50
:10550000FFF77EFB1549012240B112E0502080F3E5
:105510001188BFF34F8FBFF36F8FFEE7E06A00EB98
:10552000800351F8233023B92B6902FA00F083433A
:105530002B61E06CE062C0F10700A061E06A2B69BA
:1055400082401A432A6100EB800001EB8000211D9C
:10555000FFF79AFB012070BD28000024BC05002441
:105560002DE9F041C068C468ACB104F118000746E9
:10557000FFF746FB154D286B0126A0B114483946AC
:10558000FFF782FBE06A2968C96A88421CD90120BA
:10559000EE61BDE8F081502080F31188BFF34F8F9A
:1055A000BFF36F8FFEE7201DFFF72AFBE06A2A6931
:1055B00006FA00F111432961054900EB8000B43976
:1055C00001EB8000211DDBE70020E2E7280000243A
:1055D000700600242DE9F0472C4D00242746286B47
:1055E00038B1FFF75DFB286B401E2863286B40B184
:1055F00046E0502080F31188BFF34F8FBFF36F8FC9
:10560000FEE7A86801262249D0B3A1F1B409884673
:10561000D8F80010E9B1D8F80C00C46804F11800FB
:10562000FFF7EEFA201DFFF7EBFAE06A2A6906FAA7
:1056300000F11143296100EB800109EB8100211D7C
:10564000FFF722FBE06A2968C96A8842E0D3EE616D
:10565000DEE70CB1FFF7F6F9AC693CB1FFF7CEFE1F
:1056600000B1EE61641EF9D10020A861E86938B18B
:105670000849012738070860BFF34F8FBFF36F8FCA
:10568000FFF72EFB3846BDE8F08700002800002415
:105690007006002404ED00E00000000090000024EB
:1056A0001C570008493300080000000000000000FB
:1056B00080000000000000000000000010570008FB
:1056C00079330008FDFF00000000000080000000AA
:1056D00000000000000000000100020004000600BD
:1056E00008000A000C0010002000400080000001AB
:1056F000010101030701000008040204080101017F
:105700000000000001020304010203040607080967
:105710006D795461736B4C454400000064656661AB
:10572000756C745461736B004857000800000024C6
:105730009000000074430008D8570008900000242F
:105740002046000084430008000000000000000024
:105750000000000000000000000000000100000048
:1057600010000000000000000090D0030090D00363
:105770000000000000000000000000000000000029
:105780000000000000000000000000000000000019
:105790000000000000000000000000000000000009
:1057A00000000000000000000000000000000000F9
:1057B00000000000000000000000000000000000E9
:1057C00000000000000000000000000000000000D9
:0857D000AAAAAAAA0000000029
:040000050800029954
:00000001FF
